{
  "contractName": "Jobs",
  "abi": [
    {
      "constant": true,
      "inputs": [
        {
          "name": "",
          "type": "uint256"
        }
      ],
      "name": "jobs",
      "outputs": [
        {
          "name": "index",
          "type": "uint256"
        },
        {
          "name": "active",
          "type": "bool"
        },
        {
          "name": "addr",
          "type": "address"
        },
        {
          "name": "accType",
          "type": "uint8"
        },
        {
          "name": "name",
          "type": "string"
        },
        {
          "name": "expertise",
          "type": "uint8"
        },
        {
          "name": "year",
          "type": "uint256"
        },
        {
          "name": "DoW",
          "type": "uint256"
        },
        {
          "name": "salary",
          "type": "uint256"
        }
      ],
      "payable": false,
      "stateMutability": "view",
      "type": "function"
    },
    {
      "constant": true,
      "inputs": [
        {
          "name": "",
          "type": "address"
        }
      ],
      "name": "seekers",
      "outputs": [
        {
          "name": "",
          "type": "bool"
        }
      ],
      "payable": false,
      "stateMutability": "view",
      "type": "function"
    },
    {
      "constant": true,
      "inputs": [],
      "name": "version",
      "outputs": [
        {
          "name": "",
          "type": "string"
        }
      ],
      "payable": false,
      "stateMutability": "view",
      "type": "function"
    },
    {
      "constant": true,
      "inputs": [],
      "name": "jobIndex",
      "outputs": [
        {
          "name": "",
          "type": "uint256"
        }
      ],
      "payable": false,
      "stateMutability": "view",
      "type": "function"
    },
    {
      "constant": true,
      "inputs": [],
      "name": "admin",
      "outputs": [
        {
          "name": "",
          "type": "address"
        }
      ],
      "payable": false,
      "stateMutability": "view",
      "type": "function"
    },
    {
      "inputs": [],
      "payable": false,
      "stateMutability": "nonpayable",
      "type": "constructor"
    },
    {
      "constant": false,
      "inputs": [
        {
          "name": "_accType",
          "type": "uint8"
        },
        {
          "name": "_name",
          "type": "string"
        },
        {
          "name": "_expertise",
          "type": "uint8"
        },
        {
          "name": "_year",
          "type": "uint256"
        },
        {
          "name": "_Dow",
          "type": "uint256"
        },
        {
          "name": "_salary",
          "type": "uint256"
        }
      ],
      "name": "SignUp",
      "outputs": [],
      "payable": false,
      "stateMutability": "nonpayable",
      "type": "function"
    },
    {
      "constant": false,
      "inputs": [
        {
          "name": "index",
          "type": "uint256"
        },
        {
          "name": "_accType",
          "type": "uint8"
        },
        {
          "name": "_name",
          "type": "string"
        },
        {
          "name": "_expertise",
          "type": "uint8"
        },
        {
          "name": "_year",
          "type": "uint256"
        },
        {
          "name": "_Dow",
          "type": "uint256"
        },
        {
          "name": "_salary",
          "type": "uint256"
        }
      ],
      "name": "UpdateJobs",
      "outputs": [],
      "payable": false,
      "stateMutability": "nonpayable",
      "type": "function"
    },
    {
      "constant": false,
      "inputs": [],
      "name": "ResetData",
      "outputs": [
        {
          "name": "",
          "type": "bool"
        }
      ],
      "payable": false,
      "stateMutability": "nonpayable",
      "type": "function"
    }
  ],
  "bytecode": "0x60806040526040805190810160405280600581526020017f302e302e310000000000000000000000000000000000000000000000000000008152506004908051906020019061004f9291906100a3565b5034801561005c57600080fd5b5033600360006101000a81548173ffffffffffffffffffffffffffffffffffffffff021916908373ffffffffffffffffffffffffffffffffffffffff160217905550610148565b828054600181600116156101000203166002900490600052602060002090601f016020900481019282601f106100e457805160ff1916838001178555610112565b82800160010185558215610112579182015b828111156101115782518255916020019190600101906100f6565b5b50905061011f9190610123565b5090565b61014591905b80821115610141576000816000905550600101610129565b5090565b90565b610d4d806101576000396000f30060806040526004361061008e576000357c0100000000000000000000000000000000000000000000000000000000900463ffffffff168063180aedf3146100935780634208df27146101bd578063491a5af314610268578063526755bc146102c357806354fd4d501461036457806374d04dc2146103f4578063b777281814610423578063f851a4401461044e575b600080fd5b34801561009f57600080fd5b506100be600480360381019080803590602001909291905050506104a5565b604051808a8152602001891515151581526020018873ffffffffffffffffffffffffffffffffffffffff1673ffffffffffffffffffffffffffffffffffffffff16815260200187600181111561011057fe5b60ff1681526020018060200186600481111561012857fe5b60ff168152602001858152602001848152602001838152602001828103825287818151815260200191508051906020019080838360005b8381101561017a57808201518184015260208101905061015f565b50505050905090810190601f1680156101a75780820380516001836020036101000a031916815260200191505b509a505050505050505050505060405180910390f35b3480156101c957600080fd5b5061026660048036038101908080359060200190929190803560ff169060200190929190803590602001908201803590602001908080601f0160208091040260200160405190810160405280939291908181526020018383808284378201915050505050509192919290803560ff1690602001909291908035906020019092919080359060200190929190803590602001909291905050506105d2565b005b34801561027457600080fd5b506102a9600480360381019080803573ffffffffffffffffffffffffffffffffffffffff1690602001909291905050506106c5565b604051808215151515815260200191505060405180910390f35b3480156102cf57600080fd5b50610362600480360381019080803560ff169060200190929190803590602001908201803590602001908080601f0160208091040260200160405190810160405280939291908181526020018383808284378201915050505050509192919290803560ff1690602001909291908035906020019092919080359060200190929190803590602001909291905050506106e5565b005b34801561037057600080fd5b50610379610937565b6040518080602001828103825283818151815260200191508051906020019080838360005b838110156103b957808201518184015260208101905061039e565b50505050905090810190601f1680156103e65780820380516001836020036101000a031916815260200191505b509250505060405180910390f35b34801561040057600080fd5b506104096109d5565b604051808215151515815260200191505060405180910390f35b34801561042f57600080fd5b50610438610b88565b6040518082815260200191505060405180910390f35b34801561045a57600080fd5b50610463610b8e565b604051808273ffffffffffffffffffffffffffffffffffffffff1673ffffffffffffffffffffffffffffffffffffffff16815260200191505060405180910390f35b60016020528060005260406000206000915090508060000154908060010160009054906101000a900460ff16908060010160019054906101000a900473ffffffffffffffffffffffffffffffffffffffff16908060010160159054906101000a900460ff1690806002018054600181600116156101000203166002900480601f0160208091040260200160405190810160405280929190818152602001828054600181600116156101000203166002900480156105a35780601f10610578576101008083540402835291602001916105a3565b820191906000526020600020905b81548152906001019060200180831161058657829003601f168201915b5050505050908060030160009054906101000a900460ff16908060040154908060050154908060060154905089565b856001600089815260200190815260200160002060010160156101000a81548160ff0219169083600181111561060457fe5b021790555084600160008981526020019081526020016000206002019080519060200190610633929190610bb4565b50836001600089815260200190815260200160002060030160006101000a81548160ff0219169083600481111561066657fe5b021790555082600160008981526020019081526020016000206004018190555081600160008981526020019081526020016000206005018190555080600160008981526020019081526020016000206006018190555050505050505050565b60006020528060005260406000206000915054906101000a900460ff1681565b6000803373ffffffffffffffffffffffffffffffffffffffff1673ffffffffffffffffffffffffffffffffffffffff16815260200190815260200160002060009054906101000a900460ff1615151561073d57600080fd5b6002600081548092919060010191905055506101206040519081016040528060025481526020016001151581526020013373ffffffffffffffffffffffffffffffffffffffff16815260200187600181111561079557fe5b81526020018681526020018560048111156107ac57fe5b8152602001848152602001838152602001828152506001600060025481526020019081526020016000206000820151816000015560208201518160010160006101000a81548160ff02191690831515021790555060408201518160010160016101000a81548173ffffffffffffffffffffffffffffffffffffffff021916908373ffffffffffffffffffffffffffffffffffffffff16021790555060608201518160010160156101000a81548160ff0219169083600181111561086b57fe5b0217905550608082015181600201908051906020019061088c929190610c34565b5060a08201518160030160006101000a81548160ff021916908360048111156108b157fe5b021790555060c0820151816004015560e08201518160050155610100820151816006015590505060016000803373ffffffffffffffffffffffffffffffffffffffff1673ffffffffffffffffffffffffffffffffffffffff16815260200190815260200160002060006101000a81548160ff021916908315150217905550505050505050565b60048054600181600116156101000203166002900480601f0160208091040260200160405190810160405280929190818152602001828054600181600116156101000203166002900480156109cd5780601f106109a2576101008083540402835291602001916109cd565b820191906000526020600020905b8154815290600101906020018083116109b057829003601f168201915b505050505081565b600080600360009054906101000a900473ffffffffffffffffffffffffffffffffffffffff1673ffffffffffffffffffffffffffffffffffffffff163373ffffffffffffffffffffffffffffffffffffffff161415610b8457600190505b600254811015610b77576000806001600084815260200190815260200160002060010160019054906101000a900473ffffffffffffffffffffffffffffffffffffffff1673ffffffffffffffffffffffffffffffffffffffff1673ffffffffffffffffffffffffffffffffffffffff16815260200190815260200160002060006101000a81549060ff0219169055600160008281526020019081526020016000206000808201600090556001820160006101000a81549060ff02191690556001820160016101000a81549073ffffffffffffffffffffffffffffffffffffffff02191690556001820160156101000a81549060ff0219169055600282016000610b3c9190610cb4565b6003820160006101000a81549060ff021916905560048201600090556005820160009055600682016000905550508080600101915050610a33565b6000600281905550600191505b5090565b60025481565b600360009054906101000a900473ffffffffffffffffffffffffffffffffffffffff1681565b828054600181600116156101000203166002900490600052602060002090601f016020900481019282601f10610bf557805160ff1916838001178555610c23565b82800160010185558215610c23579182015b82811115610c22578251825591602001919060010190610c07565b5b509050610c309190610cfc565b5090565b828054600181600116156101000203166002900490600052602060002090601f016020900481019282601f10610c7557805160ff1916838001178555610ca3565b82800160010185558215610ca3579182015b82811115610ca2578251825591602001919060010190610c87565b5b509050610cb09190610cfc565b5090565b50805460018160011615610100020316600290046000825580601f10610cda5750610cf9565b601f016020900490600052602060002090810190610cf89190610cfc565b5b50565b610d1e91905b80821115610d1a576000816000905550600101610d02565b5090565b905600a165627a7a723058200d8efaed2bd35137381f8a117ca20aad33a3c1f6ff163826ffdf7e32d41b6df40029",
  "source": "pragma solidity ^0.4.23;\n\ncontract Jobs {\n\n  enum AccountType {JobSeeker, Recruiter}\n\n  enum ExpertiseType {Engineer, GraphicDesigner, WebDeveloper, Driver, Manager}\n\n  struct Job{\n    uint256 index;\n    bool active;\n    address addr;\n    AccountType accType;\n    string name;\n    ExpertiseType expertise;\n    uint256 year;\n    uint256 DoW;\n    uint256 salary;\n  }\n\n  mapping(address => bool) public seekers;\n  mapping(uint256 => Job) public jobs;\n\n  uint256 public jobIndex;\n  address public admin;\n  string public version = '0.0.1';\n\n  constructor() public {\n    admin = msg.sender;\n  }\n\n  modifier isOwner() {\n    if (msg.sender == admin) _;\n  }\n\n  function SignUp(AccountType _accType, string _name, ExpertiseType _expertise, uint256 _year, uint256 _Dow, uint256 _salary) public {\n    require(!seekers[msg.sender]);\n\n    jobIndex++;\n    jobs[jobIndex] = Job(jobIndex, true, msg.sender, _accType, _name, _expertise, _year, _Dow, _salary);\n\n    seekers[msg.sender] = true;\n  }\n\n  function UpdateJobs(uint256 index, AccountType _accType, string _name, ExpertiseType _expertise, uint256 _year, uint256 _Dow, uint256 _salary) public {\n    //require(msg.sender == jobs[index].addr);\n\n    jobs[index].accType = _accType;\n    jobs[index].name = _name;\n    jobs[index].expertise = _expertise;\n    jobs[index].year = _year;\n    jobs[index].DoW = _Dow;\n    jobs[index].salary = _salary;\n\n  }\n\n   function ResetData() public isOwner returns(bool){\n\n    for (uint i = 1; i<jobIndex; i++){\n      delete seekers[jobs[i].addr];\n      delete jobs[i];\n    }\n\n    jobIndex = 0;\n    \n    return true;\n\n  }\n\n}\n",
  "sourcePath": "C:\\xampp\\htdocs\\BLOCKCHAIN\\Jobs-Ethereum-PoC\\contracts\\Jobs.sol",
  "compiler": {
    "name": "solc",
    "version": "0.4.24+commit.e67f0147.Emscripten.clang"
  },
  "schemaVersion": "2.0.1",
  "updatedAt": "2018-07-26T18:57:23.729Z"
}